:100000000C9481000C94A9000C94A9000C94870B0B
:100010000C94870B0C94870B0C94A9000C94A900EA
:100020000C94A9000C94A9000C94A9000C94A900AC
:100030000C94A9000C94A9000C94A9000C94A9009C
:100040000C94C6090C94A9000C94360A0C94100A5E
:100050000C94A9000C94A9000C94A9000C94A9007C
:100060000C94680A0C94A9004E414E494E495459CB
:10007000494E46CDCCCC3D0AD7233C17B7D1387773
:10008000CC2B329595E6241FB14F0A000020410089
:1000900000C84200401C4620BCBE4CCA1B0E5AAED3
:1000A000C59D7400000000240027002A0000000005
:1000B0000800020100000304070000000000000027
:1000C0000000000000230026002900000000002599
:1000D0000028002B000404040404040404020202A7
:1000E0000202020303030303030102040810204079
:1000F0008001020408102001020408102000FF0BF8
:10010000381611241FBECFEFD8E0DEBFCDBF26E0EA
:10011000ACE9B2E001C01D92AE3BB207E1F712E0DC
:10012000A0E0B1E0E8E2F9E302C005900D92AC393D
:10013000B107D9F710E0C0E8D0E004C02197FE0174
:100140000E941B1BCF37D107C9F70E94D50D0C9415
:10015000871C0C940000FC0180818C3239F08A32BB
:1001600029F081E0EF2B19F080E0089581E00895F7
:10017000CF93DF93EC010E94AB0081111FC09881E7
:100180009134B9F481E08093C00480910705909187
:100190000805A0910905B0910A058093F704909392
:1001A000F804A093F904B093FA0481E0DF91CF91B1
:1001B00008959635D9F71092C004F7CF80E0F6CFB6
:1001C00090E0FC01E355FF4F2491FC01E751FF4F04
:1001D0003491FC01EB52FF4FE491EE23C9F022234E
:1001E00039F0233001F1A8F4213019F1223029F13E
:1001F000F0E0EE0FFF1FE553FF4FA591B4918FB7CD
:10020000F894EC91611126C030953E233C938FBF4A
:1002100008952730A9F02830C9F0243049F780919B
:1002200080008F7D03C0809180008F778093800055
:10023000DFCF84B58F7784BDDBCF84B58F7DFBCFD7
:100240008091B0008F778093B000D2CF8091B000C2
:100250008F7DF9CF3E2BDACFCF93DF9390E0FC0177
:10026000E751FF4F24918B529F4FFC0184918823CB
:10027000D1F090E0880F991FFC01ED55FF4FA5913B
:10028000B491FC01E553FF4FC591D49161110EC0AB
:100290009FB7F8948C91E22FE0958E238C93288160
:1002A000E223E8839FBFDF91CF9108958FB7F89441
:1002B000EC91E22BEC938FBFF6CF3FB7F89480918F
:1002C000540390915503A0915603B091570326B55E
:1002D000A89B05C02F3F19F00196A11DB11D3FBF7E
:1002E000BA2FA92F982F8827BC01CD01620F711D4D
:1002F000811D911D42E0660F771F881F991F4A9547
:10030000D1F708958F929F92AF92BF92CF92DF92D2
:10031000EF92FF924B015C010E945D016B017C0139
:100320000E945D016C197D098E099F09683E73402A
:1003300081059105A8F321E0821A9108A108B1086E
:1003400088EEC80E83E0D81EE11CF11C81149104D4
:10035000A104B10429F7FF90EF90DF90CF90BF90F8
:10036000AF909F908F9008952FB7F89460915003AD
:100370007091510380915203909153032FBF0895C0
:1003800008950895AF92BF92CF92DF92EF92FF92BD
:100390000F931F93CF93DF936C017B018B01040FAD
:1003A000151FEB015E01AE18BF08C017D10759F049
:1003B0006991D601ED91FC910190F081E02DC6018B
:1003C0000995892B79F7C501DF91CF911F910F9185
:1003D000FF90EF90DF90CF90BF90AF900895FC0119
:1003E000538D448D252F30E0842F90E0821B930B9A
:1003F000541710F0CF96089501970895FC01918D40
:10040000828D981761F0A28DAE0FBF2FB11D5D9642
:100410008C91928D9F5F9F73928F90E008958FEFE4
:100420009FEF0895FC01918D828D981731F0828D98
:10043000E80FF11D858D90E008958FEF9FEF0895EF
:10044000FC01918D228D892F90E0805C9F4F821B53
:1004500091098F739927089588EA93E00E942002FA
:1004600021E0892B09F420E0822F089580E090E0BC
:10047000892B29F00E942C0281110C940000089510
:10048000FC01A48DA80FB92FB11DA35ABF4F2C9109
:10049000848D90E001968F739927848FA689B78900
:1004A0002C93A089B1898C91837080648C93938DF7
:1004B000848D981306C00288F389E02D80818F7D9A
:1004C00080830895EF92FF920F931F93CF93DF9352
:1004D000EC0181E0888F9B8D8C8D98131AC0E88980
:1004E000F989808185FF15C09FB7F894EE89FF894F
:1004F0006083E889F98980818370806480839FBFED
:1005000081E090E0DF91CF911F910F91FF90EF90EC
:100510000895F62E0B8D10E00F5F1F4F0F731127FC
:10052000E02E8C8D8E110CC00FB607FCFACFE88937
:10053000F989808185FFF5CFCE010E944002F1CF7D
:10054000EB8DEC0FFD2FF11DE35AFF4FF0829FB7AB
:10055000F8940B8FEA89FB8980818062CFCF682F66
:1005600088EA93E00C946202CF93DF93EC01888DCC
:100570008823B9F0AA89BB89E889F9898C9185FD1E
:1005800003C0808186FD0DC00FB607FCF7CF8C91AC
:1005900085FFF2CF808185FFEDCFCE010E94400222
:1005A000E9CFDF91CF9108952091FD02260F3327E7
:1005B000331F21323105ECF420917E03FC0190E0E1
:1005C00080E0243069F082E00895A091FD0221913D
:1005D000AC0143525D4FA40FB52FB11D2C93019672
:1005E000861798F38091FD02680F6093FD0280E00A
:1005F000089581E0089510927E0381E080937D0349
:100600001092580361E082E10E94E00061E083E122
:100610000E94E000E9EBF0E080818E7F80838081A2
:100620008D7F808388E48093B80085E48093BC004C
:100630000895CF93DF9391E09093DC028823B9F083
:10064000C091B800D091BA008091BC008A7B8093A1
:10065000BC0060E082E10E94E00060E083E10E9473
:10066000E0000E94FB02D093BA00C093B800DF9173
:10067000CF9108958F929F92AF92BF92CF92DF92C7
:10068000EF92FF920F931F93CF93DF93D091A70325
:10069000D13208F0D7C0182FC091A6030E945D0187
:1006A0006B017C0180917E0381116BC082E080939D
:1006B0007E0310937D038FEF80937C0310927B0366
:1006C000D0937A03A6E8B3E0EAE5F3E080E0D8133C
:1006D00091C01092590380915903CC0FC82BC0933D
:1006E000590380915803813009F088C01092580353
:1006F0000E945D016B017C01809159038093BB00D6
:100700008091800390918103A0918203B091830333
:10071000892B8A2B8B2BA1F00E945D010091800315
:100720001091810320918203309183036C197D091C
:100730008E099F09061717072807390708F442C0D2
:100740008091BC0083FDD8CF85EC8093BC000E94D3
:100750005D016B017C0180917E03823009F450C001
:1007600080917C038F3F09F46FC080917C038032BD
:1007700009F46CC080917C03803309F469C084E083
:1007800026C08091800390918103A0918203B09153
:100790008303892B8A2B8B2B09F484CF0E945D0164
:1007A0008090800390908103A0908203B090830397
:1007B0006C197D098E099F0986169706A806B90649
:1007C00008F070CF80917F030E94190385E010929A
:1007D00085031092A70310928403DF91CF911F919C
:1007E0000F91FF90EF90DF90CF90BF90AF909F90D0
:1007F0008F9008959D9191938F5F69CF85EEA5CFDE
:100800008091800390918103A0918203B091830332
:10081000892B8A2B8B2B09F49ECF0E945D010091BE
:1008200080031091810320918203309183036C191E
:100830007D098E099F09061717072807390708F051
:100840008ACFC0CF81E0C3CF80E0C1CF82E0BFCFED
:1008500083E0BDCF0895E0912A0380912903E81732
:1008600030F4F0E0E55DFC4F808190E008958FEF7B
:100870009FEF089590912A03809129032FEF3FEF76
:10088000981748F4E92FF0E0E55DFC4F208130E057
:100890009F5F90932A03C901089580912903909145
:1008A0002A03891B990B0895CF92DF92EF92FF9252
:1008B0000F931F93CF93DF937C01CB018A0120918B
:1008C0008403222389F0EB016B01C40ED51ECC15E5
:1008D000DD0569F06991D701ED91FC910190F081FE
:1008E000E02DC7010995F3CF642F0E94D402C801FF
:1008F000DF91CF911F910F91FF90EF90DF90CF90FC
:100900000895CF93DF931F92CDB7DEB7698320910F
:1009100084032223F9F02091A703203258F021E02C
:1009200030E0FC013383228390E080E00F90DF9180
:10093000CF91089580918503E82FF0E0EA57FC4FAE
:10094000998190838F5F809385038093A70381E0D3
:1009500090E0ECCF61E0CE0101960E94D402F7CF87
:1009600020912703309128032817390771F49091BB
:10097000250380912603981741F0E0912503F0E0CC
:10098000E456FD4F808190E008958FEF9FEF08952A
:10099000EF92FF920F931F93CF93DF93DC015C964E
:1009A000ED90FC905D97E114F10479F481E090E022
:1009B00013969C938E93129790E080E0DF91CF91F5
:1009C0001F910F91FF90EF9008955196ED91FC913A
:1009D000529750968C915097982F90950FB75E969E
:1009E0002C915E97122F127021FD6095F894208152
:1009F000112319F1282B2083E7012197F1F728E033
:100A0000462F50E0308160FF1AC0382B3083E70159
:100A10002197F1F7BA0175956795215089F7112350
:100A200081F08081892380830FBF5C968D919C919A
:100A30000197F1F781E090E0C1CF2923DCCF392382
:100A4000E5CF9081892BEFCF2091270330912803A8
:100A50002817390761F4809126032091250390E03F
:100A6000805C9F4F821B91098F739927089590E0B6
:100A700080E0089520912703309128032817390733
:100A8000B9F49091250380912603981789F0E0919D
:100A90002503F0E0E456FD4F80812091250330E0EE
:100AA0002F5F3F4F2F7333272093250390E0089546
:100AB0008FEF9FEF0895089508958CBD9DBD089513
:100AC0001F93CF93DF93EC01FC01ED53FF4F808127
:100AD0009181009751F0DC01ED91FC910190F08142
:100AE000E02DDF91CF911F910994FE01EA53FF4F52
:100AF00080819181009779F7FE01E853FF4F808153
:100B00009181009741F7162FFE01E653FF4F808138
:100B10009181009769F4FE01E453FF4F8081918138
:100B2000892B21F590E080E0DF91CF911F9108950E
:100B3000FE01EB5CFE4F208131E030938403209373
:100B4000A603109285031092A703DC01ED91FC919E
:100B50000190F081E02D0995019721F781E00E9435
:100B60003A038111D8CF81E090E0DECFFE01E1535E
:100B7000FF4F808191810E945D05C253DF4F8881C4
:100B800087FD03C060E00E94E0001EBD00000DB4C0
:100B900007FEFDCF8EB5888187FDE5CF61E00E941D
:100BA000E000E1CF089590E080E008958F929F9259
:100BB000AF92BF92CF92DF92EF92FF920F931F936B
:100BC000CF93DF93EC010E94AB00811171C0CE0185
:100BD0000E9476164B015C0120E137E240E050E0D4
:100BE0000E94D21A20937D0424E6C22ED12CE12C3F
:100BF000F12CA70196010E94D21A20937E04C50110
:100C0000B401A70196010E94D21A60937F046EE29C
:100C100070E0CE010E944F1C8C016CE270E0CE01AE
:100C20000E944F1C7C016AE270E0CE010E944F1CC2
:100C300001151105C1F197018E159F0508F49C015E
:100C40002115310581F10217130768F5C8010E94CB
:100C5000541620E030E04AE754E40E9491180E94C4
:100C6000891A7093810460938004809107059091A4
:100C70000805A0910905B0910A058093FB049093A3
:100C8000FC04A093FD04B093FE0481E0DF91CF91BA
:100C90001F910F91FF90EF90DF90CF90BF90AF909A
:100CA0009F908F9008951092810410928004DDCF60
:100CB00080E0ECCF2F923F924F925F926F927F92A3
:100CC0008F929F92AF92BF92CF92DF92EF92FF925C
:100CD0000F931F93CF93DF93CDB7DEB768970FB60F
:100CE000F894DEBF0FBECDBF6C017C8B6B8B5E8B2F
:100CF0004D8B388F2F8B18010E94AB00182F81115C
:100D000038C19E012F5F3F4F59018AE0F9011192CE
:100D10008A95E9F76EE270E0C6010E944F1C7C01E3
:100D2000009709F494C0AC014C195D094730510596
:100D30000CF08DC0B601C5010E94781CC5010E944F
:100D400076164B015C01C7010E9454166F87788BA1
:100D5000898B9A8B6CE270E0C7010E944F1C7C016A
:100D600001960E94AB00811172C0C501B40124E656
:100D700030E040E050E00E94F41A29013A01ACE969
:100D8000BFEF0E94161B9B01AC01280D391D4A1DA7
:100D90005B1D2B873C874D875E87F701018160E8EB
:100DA00076E988E990E00E94C21A2CE330E040E046
:100DB00050E00E94F41A69017A01A301920160E8EF
:100DC00076E988E990E00E94C21A6C0D7D1D8E1DA7
:100DD0009F1D0E9432186B017C0120E836E948E132
:100DE0005BE46F85788989899A890E94911820E04F
:100DF00030E040E752E40E94101A9B01AC01C701A9
:100E0000B6010E94A4190E94821A4B015C010E9443
:100E1000321820E836E948E15BE40E94101A6B01C1
:100E20007C01802F8B7F833509F0A5C0B094A094FE
:100E300090948094811C911CA11CB11CF7FAF09431
:100E4000F7F8F0940335E9F0073509F47DC0812FF8
:100E500068960FB6F894DEBF0FBECDBFDF91CF917D
:100E60001F910F91FF90EF90DF90CF90BF90AF90C8
:100E70009F908F907F906F905F904F903F902F90BA
:100E8000089520E030E0A901C701B6010E94B81A18
:100E900018160CF04FC020E030E044EB52E4C701DC
:100EA000B6010E94B81A181694F220E030E044E32C
:100EB00053E4C701B6010E94B81A181644F22D89EE
:100EC0003E89232BE1F0A4E6B0E0A30192010E9449
:100ED00052192B853C854D855E85620F731F841FDB
:100EE000951F0E9432182F85388949895A890E9496
:100EF000A419ED89FE8960837183828393832F898E
:100F0000388D2115310529F0F90180829182A28264
:100F1000B3822B893C892115310529F0F901C08262
:100F2000D182E282F3822114310411F0F1010083B5
:100F300011E08DCF20E030E044EB52ECC701B60168
:100F40000E942B1887FD83CF20E030E0A901C70164
:100F5000B6010E94B81A18160CF4A7CF20E030E0B2
:100F600044E353ECC701B6010E942B1887FD6FCFF5
:100F7000A6CF10E06CCF0E3409F483CF053409F00E
:100F800066CFE2CFCF92DF92EF92FF920F931F9343
:100F9000CF93DF937C018B016B018EE2C81A88EF3F
:100FA000D80AF801C191D1918F0142E050E06BE77E
:100FB00071E0CE010E946A1C892BD9F00C151D0529
:100FC000C1F0FE0101900020E9F73197AF014C1B01
:100FD0005D0BB701CE010E946A1C892B11F7CE016F
:100FE000DF91CF911F910F91FF90EF90DF90CF9005
:100FF0000895D0E0C0E0F3CFFB0101900020E9F7B5
:101000003197AF01461B570BDC01ED91FC9102803B
:10101000F381E02D09948F929F92AF92BF920F932C
:101020001F93CF93DF93CDB7DEB7A1970FB6F89498
:10103000DEBF0FBECDBF19A2423008F44AE08E01D8
:101040000F5D1F4F842E912CB12CA12CA501940172
:101050000E94D21AE62FB901CA01EA3004F5E05D18
:10106000D801EE938D01232B242B252B79F790E0CB
:1010700080E0109729F0BD0188EA93E00E94FC0708
:10108000A1960FB6F894DEBF0FBECDBFDF91CF9112
:101090001F910F91BF90AF909F908F900895E95C42
:1010A000DFCF682F70E090E080E04AE00C940B08FE
:1010B000BC0188EA93E00C94FC07CF92DF92EF9298
:1010C000FF92CF93DF936C01990FEE08FF08F7FEB4
:1010D0001FC08DE20E94AF02EC0166277727CB018B
:1010E0006C197D098E099F094AE00E940B08C80F00
:1010F000D91F6CE571E088EA93E00E94FC078C0F31
:101100009D1FDF91CF91FF90EF90DF90CF900895DA
:101110004AE0C701B6010E940B08EC01EACF4F92EA
:101120005F926F927F928F929F92AF92BF92CF9277
:10113000DF92EF92FF920F931F93CF936B017C018D
:10114000742EAC019B010E94BD1A6FE571E0811104
:1011500026C046015701E894B7F82FEF3FEF4FE75D
:101160005FE7C501B4010E94BD1A81110CC02FEFC9
:101170003FEF4FE75FE7C501B4010E942B1863E61C
:1011800071E0181664F02FEF3FEF4FE75FE4C701FF
:10119000B6010E94B81A1816ACF467E671E088EA46
:1011A00093E0CF911F910F91FF90EF90DF90CF9040
:1011B000BF90AF909F908F907F906F905F904F9077
:1011C0000C94FC072FEF3FEF4FE75FECC701B60130
:1011D0000E942B1887FDE1CF20E030E0A901C70174
:1011E000B6010E942B1810E000E087FF08C08DE2D6
:1011F0000E94AF028C01F7FAF094F7F8F094C0E087
:1012000060E070E080E09FE37C1641F020E030E099
:1012100040E251E40E94101ACF5FF6CFA701960179
:101220000E94A4192B013C010E94891A4B015C0108
:101230004AE00E940B087C01E00EF11ECC23B1F1C4
:10124000C501B4010E9430189B01AC01C301B20179
:101250000E94A3194B015C018EE20E94AF02E80ECE
:10126000F91EC15018F120E030E040E251E4C50120
:10127000B4010E9491182B013C010E94891A4B0174
:10128000B12CA12C4AE0C501B4010E940B08E80E64
:10129000F91EC501B4010E9430189B01AC01C301C5
:1012A000B2010E94A3194B015C01DBCFC701CF91B2
:1012B0001F910F91FF90EF90DF90CF90BF90AF9074
:1012C0009F908F907F906F905F904F900895CF93F5
:1012D000DF9342E00E948F08EC016CE571E088EA40
:1012E00093E00E94FC078C0F9D1FDF91CF91089522
:1012F0000F931F93CF93DF93EC010E94FC078C01A7
:101300006CE571E0CE010E94FC07800F911FDF9118
:10131000CF911F910F91089585ED8093BC0080912E
:10132000800390918103A0918203B091830307967B
:10133000A11DB11D23E0B695A795979587952A9590
:10134000D1F72091BC0024FD03C010927E030895C4
:1013500040918003509181036091820370918303D7
:10136000452B462B472B69F30097A105B10541F0AA
:101370002AE22A95F1F700C00197A109B109E1CF4E
:1013800080917F030C9419030C94BD1B1F920F9244
:101390000FB60F9211242F933F938F939F93AF9388
:1013A000BF938091500390915103A0915203B0914B
:1013B000530330914F0323E0230F2D3758F5019647
:1013C000A11DB11D20934F038093500390935103AF
:1013D000A0935203B093530380915403909155030B
:1013E000A0915603B09157030196A11DB11D8093A2
:1013F000540390935503A0935603B0935703BF91A2
:10140000AF919F918F913F912F910F900FBE0F90B1
:101410001F90189526E8230F0296A11DB11DD2CF6B
:101420001F920F920FB60F9211242F933F934F9359
:101430005F936F937F938F939F93AF93BF93EF933C
:10144000FF9388EA93E00E944002FF91EF91BF91E1
:10145000AF919F918F917F916F915F914F913F914C
:101460002F910F900FBE0F901F9018951F920F9203
:101470000FB60F9211242F938F939F93EF93FF93A7
:10148000E091B803F091B9038081E091BE03F0913F
:10149000BF0382FD1BC090818091C1038F5F8F735A
:1014A0002091C203821741F0E091C103F0E0E855BA
:1014B000FC4F958F8093C103FF91EF919F918F9186
:1014C0002F910F900FBE0F901F9018958081F4CF31
:1014D0001F920F920FB60F9211242F933F934F93A9
:1014E0005F936F937F938F939F93AF93BF93EF938C
:1014F000FF938091B900887F803609F44AC0F0F5E7
:10150000883209F4A7C018F5803109F49BC0B8F4FB
:10151000882309F4F9C0883009F494C0FF91EF9151
:10152000BF91AF919F918F917F916F915F914F91FB
:101530003F912F910F900FBE0F901F9018958831FB
:1015400009F488C0803251F780937C0314C0803442
:1015500009F49DC040F48033B9F38833F9F68093E1
:101560007C0385ECB0C0803509F485C0883509F46A
:1015700096C0883499F60E948C09D0CF883909F436
:101580008CC038F5883729F050F4883611F0803750
:1015900029F683E080937E0310921F0357C088389A
:1015A00009F47BC0803919F0803809F0B7CF8091F9
:1015B0001F03803208F071C0E0911F0381E08E0F9D
:1015C00080931F038091BB00F0E0E150FD4F8083CA
:1015D0003DC0803B39F0E0F4803A09F479C0883AA4
:1015E00009F09CCF84E080937E031092FE0210925B
:1015F000FD02E0912303F091240309958091FD02FF
:1016000081110FC081E08093FD021092DD0209C0BC
:10161000803C09F4A6CF883C09F4A3CF883B09F0AD
:101620007DCFE091FE0281E08E0F8093FE02F0E01C
:10163000E352FD4F80818093BB009091FE02809128
:10164000FD0229C0809159038093BB0085EC8093F3
:10165000BC0064CF90917B0380917A03981758F572
:10166000E0917B0381E08E0F80937B03F0E0E65AEC
:10167000FC4F8081E9CFE0917B0381E08E0F809366
:101680007B038091BB00F0E0E65AFC4F8083909191
:101690007B0380917A039817C8F285E8D8CFE09150
:1016A0007B0381E08E0F80937B038091BB00F0E091
:1016B000E65AFC4F808380917D0381115CCF81E0ED
:1016C0008093580384EA8093BC0010927E0326CF57
:1016D00085EC8093BC0010927E0380911F038032C2
:1016E00030F4E0911F03F0E0E150FD4F1082609173
:1016F0001F0370E0E0912103F09122038FEF92E04D
:10170000099510921F030ACF10927C0334CF1F92C9
:101710000F920FB60F9211242F933F934F935F9325
:101720006F937F938F939F93AF93BF93EF93FF93A9
:10173000E0912703F0912803309749F0A685B785FB
:101740008585968D91FF14C09C918923A1F4FF910A
:10175000EF91BF91AF919F918F917F916F915F9129
:101760004F913F912F910F900FBE0F901F901895A2
:101770009C91892361F7A389B4899C91858980957F
:1017800089238C93868997890197F1F7608D718DF4
:10179000A685B785558538E020E0CB010197F1F7A4
:1017A000822F90E095958795282F4C91452309F03D
:1017B0002068315091F7868D81FD20958091260318
:1017C00090E001968F73992730912503381799F08F
:1017D000A0912603B0E0A456BD4F2C93809326031E
:1017E000828D938D0197F1F7A389B4898C919589A6
:1017F000892B8C93ACCF868D8160868FF1CF109230
:10180000AB031092AA0388EE93E0A0E0B0E08093CF
:10181000AC039093AD03A093AE03B093AF032CE25F
:1018200031E03093A9032093A80325EC30E03093F6
:10183000B5032093B40324EC30E03093B703209336
:10184000B60320EC30E03093B9032093B80321ECC9
:1018500030E03093BB032093BA0322EC30E03093A6
:10186000BD032093BC0326EC30E03093BF032093EC
:10187000BE031092C1031092C2031092C3031092D0
:10188000C40310929C0610929B0680939D06909331
:101890009E06A0939F06B093A0068EE491E09093DD
:1018A0009A06809399061092B0061092AF06109295
:1018B000B2061092B1061092B4061092B3061092BE
:1018C000B6061092B5066091B7066E7F6D7F609385
:1018D000B7066695617081E0682786E00E94E000A7
:1018E00061E086E00E942C01EFEEF0E0E491E093ED
:1018F000A906EBEDF0E0E491F0E0EE0FFF1FE553F9
:10190000FF4F859194919093AB068093AA0660E077
:1019100087E00E942C018091B70681FD04C061E040
:1019200087E00E94E00087E08093A506E0EFF0E00A
:10193000E491E093A606ECEDF0E0E491F0E0EE0F28
:10194000FF1FEF53FF4F859194919093A8068093CA
:10195000A70610924C0410924B048EE391E09093F2
:101960004A048093490410924E0410924D04109240
:101970004F04109250041092510484E1E2E5F4E027
:10198000DF01982F1D929A95E9F710926604109244
:10199000670410926804E9E6F4E0DF011D928A957D
:1019A000E9F78EE0E6E0F1E0A1EDB4E001900D9200
:1019B0008A95E1F78CE0E4E1F1E0AFEDB4E001906D
:1019C0000D928A95E1F788E0E0E2F1E0ABEEB4E059
:1019D00001900D928A95E1F780E094E9A5E3B7E7DD
:1019E0008093F3049093F404A093F504B093F60469
:1019F0008093F7049093F804A093F904B093FA0449
:101A00008093FB049093FC04A093FD04B093FE0428
:101A10008093FF0490930005A0930105B093020505
:101A20008093030590930405A0930505B0930605E4
:101A30008093070590930805A0930905B0930A05C4
:101A400010920E058FEF8093170591E5909318057E
:101A50001092190580939F051092A0051092A10580
:101A6000109292061092100510920F051092120516
:101A7000109211051092140510921305109216057C
:101A8000109215051092970610920B05109292066F
:101A900082EA95E090939406809393068AE196E01B
:101AA00090939606809395061092C4041092C304F6
:101AB0001092C2041092C104109284041092830404
:101AC0001092820410927F0410927E0410927D0482
:101AD0001092BF041092BE041092BD041092C00474
:101AE00010928104109280041092B9041092BA04EA
:101AF0001092BB041092BC041092B5041092B6046C
:101B00001092B7041092B8041092B1041092B2046B
:101B10001092B3041092B4041092AD041092AE046B
:101B20001092AF041092B0041092A9041092AA046B
:101B30001092AB041092AC041092A5041092A6046B
:101B40001092A7041092A8041092A1041092A2046B
:101B50001092A3041092A40410929D0410929E046B
:101B600010929F041092A0041092890410928A048B
:101B700010928B0410928C041092850410928604AB
:101B8000109287041092880489E996E090930D05DD
:101B900080930C050E94B401609345047093460441
:101BA00080934704909348040895789484B58260A4
:101BB00084BD84B5816084BD85B5826085BD85B5F1
:101BC000816085BD80916E00816080936E0010926F
:101BD00081008091810082608093810080918100EA
:101BE000816080938100809180008160809380007B
:101BF0008091B10084608093B1008091B0008160D9
:101C00008093B00080917A00846080937A00809104
:101C10007A00826080937A0080917A00816080935C
:101C20007A0080917A00806880937A001092C100D7
:101C3000E091B803F091B90382E08083E091B403AE
:101C4000F091B5031082E091B603F091B70380E103
:101C500080831092C003E091BC03F091BD0386E045
:101C60008083E091BA03F091BB038081806180831F
:101C7000E091BA03F091BB03808188608083E0919A
:101C8000BA03F091BB03808180688083E091BA033E
:101C9000F091BB0380818F7D808368E873E180E0F1
:101CA00090E00E9482016EE971E088EA93E00E9470
:101CB0007809E0910C05F0910D05309709F473C097
:101CC000138E128E118E108E178A168A8DE991E06E
:101CD000958F848F8485863108F03DC02DEB30E0F0
:101CE000378B268B2BE931E0318F208F2CE231E0CE
:101CF000338F228F90916800883008F4DDC121E095
:101D00008E3008F420E081E001C0880F2A95EAF7C0
:101D1000892B8093680094852DE630E0983050F050
:101D20002BE630E09E3030F02CE630E0963110F0BB
:101D300030E020E0348B238B292F30E0983008F0FE
:101D4000BDC181E001C0880F9A95EAF7858B848D2B
:101D5000958D0197F1F7828D938D892B21F1A091BB
:101D60002703B0912803EA17FB07E9F0109751F019
:101D70005396CD91DC915497988155968C9180958E
:101D800089238883868D8E7F868F109226031092FA
:101D90002503F0932803E0932703A389B4898C914A
:101DA0009589892B8C93E0910F05F0911005309760
:101DB00029F1A089B18982E08C93A485B5851C9214
:101DC000A685B7858FEC8C93108EA489B58986E0A3
:101DD0008C93A289B3898C9180618C93A289B389F9
:101DE0008C9188608C93A289B3898C9180688C9344
:101DF0000288F389E02D80818F7D80838091130597
:101E000090911405892B09F466C110922A0310924F
:101E10002903109285031092A7030E94FB0280EC15
:101E200091E0909324038093230381EC91E09093BD
:101E300022038093210380E180937E0591E09093BB
:101E400084038093A60381E00E943A0367EC71E06B
:101E500089E494E00E94780969EF71E089E494E0F4
:101E60000E9478096AE072E089E494E00E947809AF
:101E700068EE73E080E090E00E94820169E172E028
:101E800089E996E00E94780984E6C82ED12CE12CDD
:101E9000F12C9AE1292E96E0392E0E94B4012B01F3
:101EA0003C0180910B0581113BC280910E0581118F
:101EB00037C280910C0590910D05009709F45DC122
:101EC000DC01ED91FC910084F185E02D0995892BD1
:101ED00009F426C280910C0590910D05DC01ED916D
:101EE000FC910284F385E02D0995C82F80910F05A0
:101EF000909110050097B1F0DC01ED91FC91008408
:101F0000F185E02D0995892B09F408C280910F0510
:101F100090911005DC01ED91FC910284F385E02D98
:101F20000995C82F80911105909112050097B1F085
:101F3000DC01ED91FC910084F185E02D0995892B60
:101F400009F4ECC18091110590911205DC01ED912D
:101F5000FC910284F385E02D0995C82F809113052B
:101F600090911405892B89F08091A00590919F058F
:101F700098170CF404C1E82F082E000CFF0BE15851
:101F8000FA4FC0818F5F8093A005809115059091D5
:101F90001605892B89F180911805909119050E94E9
:101FA0005D058091170587FD03C060E00E94E00099
:101FB000EFEFEEBD00000DB407FEFDCFCEB5809172
:101FC000170587FD03C061E00E94E000CA3021F4DC
:101FD0008091A1058D30F9F60C2F0C2E000C110B01
:101FE000C8010E94481C892B29F4C8010E940A18C4
:101FF000892B89F2C093A105809193069091940654
:10200000E091920621E02E0F20939206E80FF92F1F
:10201000F11DC08380919206883718F0F7E7F0939E
:10202000920680904B0390904C03A0904D03B0908B
:102030004E03CA3009F0D5C1E09192068091930613
:1020400090919406E80FF92FF11D1082809193066C
:102050009091940625E0823A920709F0B7C1309238
:10206000940620929306909396068093950610927C
:10207000920681E0809397060E94B4016093030565
:1020800070930405809305059093060580920705DB
:1020900090920805A0920905B0920A0510924B0390
:1020A00010924C0310924D0310924E036C2F88EA4D
:1020B00093E00E94620234C184E02ACE9E3040F454
:1020C0002850310981E001C0880F2A95EAF73ECEF9
:1020D0002E503109F7CF8091150590911605892B67
:1020E00009F444C0CFB7F89480912003811127C030
:1020F000EFEDF0E08491E3EFF0E09491E82FF0E071
:10210000EE0FFF1FED55FF4FA591B491EC91E92320
:1021100021F461E08AE00E94E00061E08AE00E9430
:102120002C018CB580618CBD8CB580648CBD61E068
:102130008DE00E942C0161E08BE00E942C018091D7
:1021400020038F5F80932003CFBF83E58093180522
:10215000109219058091170587FD08C061E00E9463
:102160002C0161E0809117050E94E0006AE070E0B8
:1021700080E090E00E94820169CEC0E0B7CE0E946C
:102180005D012B013C0180917E03811165C081E0DE
:1021900080937E0380937D03BFEFB0937C03109206
:1021A0007B039FE190937A038093590380915903B5
:1021B00080628093590380915803813009F0E0C018
:1021C000109258030E945D012B013C01809159033C
:1021D0008093BB008091800390918103A091820342
:1021E000B0918303892B8A2B8B2BA1F00E945D0178
:1021F0000091800310918103209182033091830329
:1022000064197509860997090617170728073907FA
:1022100008F443C08091BC0083FDD8CF85EC809347
:10222000BC000E945D012B013C0180917E03813046
:1022300009F4A8C080917B03803208F0C5C080916A
:102240007B03AAE5B3E0EBE2F3E090E0981751F1ED
:102250002D9121939F5FFACF80918003909181030C
:10226000A0918203B0918303892B8A2B8B2B09F4D5
:102270008ACF0E945D01009180031091810320911B
:10228000820330918303641975098609970906173B
:1022900017072807390708F076CF80917F030E943F
:1022A000190380E010922A03809329038032B1F54C
:1022B00010929F0500E210E08091130590911405A3
:1022C000DC01ED91FC910284F385E02D09958A30C3
:1022D00021F49091A1059D3071F48093A105909116
:1022E0009F05E92F092E000CFF0BE158FA4F808360
:1022F0009F5F90939F0501501109F1F680919F0512
:10230000815080939F05811107C080917F058A309D
:1023100019F4BFEFB0939F051092A005C111C6CE6E
:1023200080919706882309F48EC110929706009138
:1023300095061091960610924E0410924D0410923C
:102340004F0410925204D8018C91843219F08132DA
:1023500009F092C2E1E0F0E0F0934E04E0934D0406
:10236000C801FC01019620812111FBCF80818A32B6
:1023700009F457C40E171F0708F07EC23197F6CF35
:1023800085EE4DCF8091800390918103A0918203CF
:10239000B0918303892B8A2B8B2B09F446CF0E94A3
:1023A0005D0100918003109181032091820330919F
:1023B0008303641975098609970906171707280703
:1023C000390708F032CF69CF80E23BCF82EA95E04F
:1023D00090939406809393063092960620929506E9
:1023E00046CE89288A288B2809F098CF40924B0343
:1023F00050924C0360924D0370924E038FCF9FEB2F
:10240000980F8753963008F414C480E012C49FEBF1
:10241000980F8753963008F418C480E016C4892BAF
:1024200009F02AC2E3E0F0E0F0934E04E0934D049B
:1024300061ED74E0C5010E94C207EC01009709F448
:102440001BC2BC018FE494E00E94631C8DE090E00D
:1024500090934E0480934D04FE0101900020E9F713
:102460003197DF01AC1BBD0BED01CA0DDB1D6FED1C
:1024700074E0CE010E94C207009709F4EBC1BC01D1
:1024800082E594E00E94631CE9E4F0E0F0934E04DE
:10249000E0934D046CE270E0C8010E944F1CEC0117
:1024A00021966EE771E082E594E00E945A1C892B28
:1024B00009F031C2CE010E94D6056CE270E0CE0177
:1024C0000E944F1CEC0121960DEB14E02DE834E046
:1024D00045E854E065E974E0CE010E945A066CE2DA
:1024E00070E0CE010E944F1C6CE270E001960E94E9
:1024F0004F1CEC0121960EEB14E021E934E049E891
:1025000054E069E974E0CE010E945A066CE270E082
:10251000CE010E944F1C6CE270E001960E944F1C9D
:10252000EC012196CE010E94AB0081111BC0CE01AF
:102530000E9458168093C104882309F4E9C181E000
:102540008093C0048091070590910805A09109052A
:10255000B0910A058093F7049093F804A093F904CE
:10256000B093FA046CE270E0CE010E944F1CEC01C3
:102570002196CE010E94AB00811105C0CE010E94C0
:1025800058168093C3046CE270E0CE010E944F1C89
:10259000EC012196CE010E94AB0081110BC0CE014F
:1025A0000E9454166093B1047093B2048093B304F4
:1025B0009093B4046CE270E0CE010E944F1CEC01D9
:1025C0002196CE010E94AB0081110BC0CE010E946A
:1025D00054166093A1047093A2048093A304909373
:1025E000A4046CE270E0CE010E944F1C6CE270E02B
:1025F00001960E944F1CEC012196CE010E94AB0077
:1026000081110BC0CE010E94541660939D047093FB
:102610009E0480939F049093A0046FE474E086E688
:1026200094E00E94631C62E574E089E694E00E94F5
:10263000631C0E94B4016093F3047093F4048093CC
:10264000F5049093F6040E94B401009145041091A2
:1026500046042091470430914804601B710B820BA3
:10266000930B613D77408105910508F405C10E94F7
:10267000B40160934504709346048093470490939B
:10268000480485E292E00E94580880917D048A30D7
:1026900018F480E30E94AF0280917D040E945108EB
:1026A0008AE30E94AF0280917E048A3018F480E3AE
:1026B0000E94AF0280917E040E9451088AE30E942A
:1026C000AF0280917F048A3018F480E30E94AF0249
:1026D00080917F040E9451088EE20E94AF02809197
:1026E0008004909181048A30910508F092C28DE2B5
:1026F00092E00E945808609180047091810490E0FB
:1027000080E04AE00E940B086CE571E088EA93E003
:102710000E94FC0780E392E00E94580880918404A4
:102720000E9451088FE20E94AF02809183040E94B0
:10273000510887E392E00E945808809182040E9429
:1027400051086CE571E088EA93E00E94FC078BE396
:1027500092E00E9458086091C00470E090E080E030
:102760004AE00E940B0881E492E00E9458088091A0
:10277000C10490E00E945D088091C004882309F4A0
:102780007BC08CE492E00E945808609185047091AF
:102790008604809187049091880444E00E948F0809
:1027A0008091BD040E94AF0287E592E00E94580824
:1027B0006091890470918A0480918B0490918C04BB
:1027C00044E00E948F088091BE040E94AF026CE535
:1027D00071E088EA93E00E94FC078AE592E00E949B
:1027E00058086091A5047091A6048091A704909167
:1027F000A8040E9467098AE692E00E945808609146
:10280000A9047091AA048091AB049091AC040E9439
:10281000670982E792E00E9458086091A1047091D4
:10282000A2048091A3049091A4040E9467098DE7FB
:1028300092E00E9458088091C30490E00E945D08D5
:102840008AE892E00E9458088091C40490E00E94B7
:102850005D0812C06BEE74E0CE010E94C2070097C3
:10286000C1F0BC0182E594E00E94631C81E290E02B
:1028700090934E0480934D04E0E0F0E0EF2B09F4D8
:102880000CCB0E942C02882309F407CB0E94000085
:1028900004CB6CE270E0CE010E944F1C009799F0CF
:1028A0008C010C1B1D0B0431110514F003E110E029
:1028B000A801BE0182E594E00E94781CF801EE5A5E
:1028C000FB4F1082D9CF6AE270E0CE010E944F1C0C
:1028D000009751F08C010C1B1D0BA8010431110550
:1028E00044F343E150E0E5CFDE010D900020E9F72D
:1028F000AD01415051094C1B5D0B4331510510F0A6
:1029000043E150E0BE0182E594E00E94781CB4CF20
:102910001092C00427CE6AE871E082E594E00E943C
:102920005A1C892B09F0A3C0CE010E94D6056CE287
:1029300070E0CE010E944F1CEC012196CE010E9456
:10294000B8006CE270E0CE010E944F1CEC012196B1
:102950000DEB14E02DE834E045E854E065E974E05F
:10296000CE010E945A066CE270E0CE010E944F1C1C
:102970006CE270E001960E944F1CEC0121960EEB78
:1029800014E021E934E049E854E069E974E0CE015B
:102990000E945A066CE270E0CE010E944F1C6CE26D
:1029A00070E001960E944F1CEC012196CE010E941E
:1029B000AB0081110BC0CE010E9454166093A50498
:1029C0007093A6048093A7049093A8046CE270E02F
:1029D000CE010E944F1CEC012196CE010E94AB005B
:1029E00081110BC0CE010E9454166093A90470930C
:1029F000AA048093AB049093AC046CE270E0CE0127
:102A00000E944F1CEC012196CE010E94AB00811167
:102A100004CECE010E9454160E94891A2B013C015B
:102A200020E137E240E050E00E94D21A2093840473
:102A3000A70196010E94D21A20938304C301B20118
:102A4000A70196010E94D21A609382048091070523
:102A500090910805A0910905B0910A058093FF04A3
:102A600090930005A0930105B0930205D6CD62E8CE
:102A700071E082E594E00E945A1C892BD1F50DEBA0
:102A800014E02DE834E045E854E065E974E0CE0157
:102A90000E945A066CE270E0CE010E944F1C6CE26C
:102AA00070E001960E944F1CEC0121960EEB14E0A1
:102AB00021E934E049E854E069E974E0CE010E947C
:102AC0005A066CE270E0CE010E944F1C6CE270E08E
:102AD00001960E944F1CEC012196CE010E94D60562
:102AE0006CE270E0CE010E944F1C01960E94B8007B
:102AF00094CD66E871E082E594E00E945A1C892B2F
:102B000009F063C06CE270E0CE010E944F1CEC0142
:102B10002196CE010E94AB00811105C0CE010E941A
:102B200058168093C2046CE270E0CE010E944F1CE4
:102B3000EC0121960CE010E06CE270E0CE010E9406
:102B40004F1CEC01219601501109B1F7CE010E94F2
:102B5000AB0081110BC0CE010E9454166093B904E2
:102B60007093BA048093BB049093BC046CE270E051
:102B7000CE010E944F1CEC012196CE010E94AB00B9
:102B800081110BC0CE010E9454166093B104709362
:102B9000B2048093B3049093B4046CE270E0CE016D
:102BA0000E944F1CEC012196CE010E94AB008111C6
:102BB00034CDCE010E9454166093B5047093B604D0
:102BC0008093B7049093B80428CD6EE871E082E555
:102BD00094E00E945A1C892B09F04ECE6CE270E002
:102BE000CE010E944F1CEC0101960E94AB008111A6
:102BF00014CD8981833321F483E08093C4040DCD07
:102C0000823311F482E0F9CF813309F006CD81E0FF
:102C1000F4CF0A978A35910508F06DCD8EE292E0E7
:102C200068CD818180330CF4F0CB8A330CF0E7CB94
:102C3000805390E1899F90011124828180330CF4AC
:102C4000ECCB8A330CF0E3CB8053820F932F911D92
:102C50005801AFEFAA1ABA0AD501AE17BF0708F09C
:102C6000DECB2D91022E000C330B82279327F5CF5C
:102C70008EE491E090939A068093990680912703C1
:102C8000909128038959964071F4E091AC06F09137
:102C9000AD0690818091AE06809589238083109245
:102CA0002803109227030895662777270C94BA16F5
:102CB000FC0188279927E89421912032E9F32930F3
:102CC00010F02E30C8F32B3241F02D3239F46894D5
:102CD00004C00E94B216820F911D219120532A3008
:102CE000C0F31EF4909581959F4F08951F93FC01AA
:102CF00099278827BC01E89411911032E9F3193023
:102D000010F01E30C8F31B3251F01D3249F46894A4
:102D100006C00E949D16610F711D811D911D1191AC
:102D200010531A30B0F33EF49095809570956195EC
:102D30007F4F8F4F9F4F1F910895592F482F372F47
:102D4000262F660F771F881F991F660F771F881F12
:102D5000991F620F731F841F951F660F771F881FAF
:102D6000991F08957AE0979F902D879F802D910D50
:102D700011240895B0E0A0E0E0ECF6E10C946319B2
:102D80005C017B016115710519F0DB018D939C934A
:102D900085010F5F1F4FF501D0818D2F90E00E94BC
:102DA0000A186C01892BB9F5DD32B9F50F5F1F4F99
:102DB000D5011196DC91C1E05801F1E0AF1AB108DC
:102DC00043E050E060E770E0C5010E941318892BD2
:102DD00069F5680182E0C80ED11C45E050E06BE661
:102DE00070E0C6010E941318892B21F4680197E056
:102DF000C90ED11CE114F10419F0D701CD92DC9277
:102E000060E070E080E89FEFC111FFC060E070E01B
:102E100080E89FE7FAC05801BBCFDB3229F4850177
:102E20000E5F1F4FF501D181C0E0C6CF43E050E0F7
:102E300068E670E0C5010E941318892BE9F0F801DB
:102E400010E000E020E030E0A9015F01B0ED8B2E42
:102E50008D0E89E08815C8F19C2E689491F88C2F0E
:102E60008870C2FF16C0811102C00F5F1F4F3196DC
:102E7000D501DC91C92DE9CFE114F10429F00E5FF1
:102E80001F4FF7011183008360E070E080EC9FE743
:102E9000BCC0882311F001501109A5E0B0E00E94E8
:102EA00052199B01AC01220F331F441F551F280DDF
:102EB000311D411D511D283999E93907490799E10B
:102EC0005907A8F2C6609C2ED2CFAEEF8A1206C078
:102ED000C3FD3CC09C2E689493F8C9CFDF7DD534E8
:102EE000A9F580818D3239F4C061DF0112968181AC
:102EF00062E070E006C0DF018B32C1F3119661E041
:102F000070E080535D01A61AB70A8A30F8F4E0E851
:102F1000CE16ECE0DE065CF4B601660F771F660F96
:102F2000771FC60ED71ECC0CDD1CC80ED11C5D0150
:102F3000FFEFAF1ABF0A8C9180538A30A8F1C4FF0B
:102F400003C0D194C194D1080C0D1D1DC1FF09C04F
:102F5000E114F10431F081E0A81AB108D701AD9273
:102F6000BC92CA01B9010E943018C370C33009F481
:102F700090584B015C0120E030E0A9010E942B1821
:102F8000882309F440C0CFE9D0E017FF05C01195B0
:102F900001951109C7E8D0E06E01B8E1CB1AD1085C
:102FA00080E2E82EF12C0FC0D501B1CFFE012591B2
:102FB0003591459154910E191F09C501B4010E9424
:102FC00091184B015C01D501C4010E151F0574F762
:102FD0002497F594E794CC16DD06A9F78A2F880F7D
:102FE0008B2F881F8F3F49F020E030E0A901C501F9
:102FF000B4010E942B18811106C082E290E09093E8
:10300000B9068093B806C501B401CDB7DEB7ECE0D0
:103010000C947F1991110C94FE18803219F089508C
:103020008550C8F70895FB01DC014150504088F0FD
:103030008D9181341CF08B350CF4805E6591613488
:103040001CF06B350CF4605E861B611171F3990BFB
:103050000895881BFCCF0E946D1808F481E0089544
:10306000E89409C097FB3EF4909580957095619522
:103070007F4F8F4F9F4F9923A9F0F92F96E9BB27D8
:103080009395F695879577956795B795F111F8CF54
:10309000FAF4BB0F11F460FF1BC06F5F7F4F8F4FBF
:1030A0009F4F16C0882311F096E911C0772321F0B5
:1030B0009EE8872F762F05C0662371F096E8862F4D
:1030C00070E060E02AF09A95660F771F881FDAF7A4
:1030D000880F9695879597F90895990F0008550FD1
:1030E000AA0BE0E8FEEF16161706E807F907C0F08E
:1030F00012161306E407F50798F0621B730B840B96
:10310000950B39F40A2661F0232B242B252B21F46F
:1031100008950A2609F4A140A6958FEF811D811D0F
:1031200008950E94A4180C9418190E940A1938F0E6
:103130000E94111920F0952311F00C9401190C94A0
:10314000071911240C944C190E94291970F3959FAA
:10315000C1F3950F50E0551F629FF001729FBB278E
:10316000F00DB11D639FAA27F00DB11DAA1F649F2A
:103170006627B00DA11D661F829F2227B00DA11DDD
:10318000621F739FB00DA11D621F839FA00D611D63
:10319000221F749F3327A00D611D231F849F600D84
:1031A000211D822F762F6A2F11249F5750409AF0AD
:1031B000F1F088234AF0EE0FFF1FBB1F661F771F39
:1031C000881F91505040A9F79E3F510580F00C9404
:1031D00001190C944C195F3FE4F3983ED4F38695A3
:1031E00077956795B795F795E7959F5FC1F7FE2BA4
:1031F000880F911D9695879597F9089599278827A7
:10320000089597F99F6780E870E060E008959FEF68
:1032100080EC089500240A9416161706180609066D
:10322000089500240A94121613061406050608953C
:10323000092E0394000C11F4882352F0BB0F40F4C4
:10324000BF2B11F460FF04C06F5F7F4F8F4F9F4F04
:10325000089557FD9058440F551F59F05F3F71F086
:103260004795880F97FB991F61F09F3F79F08795ED
:103270000895121613061406551FF2CF4695F1DF76
:1032800008C0161617061806991FF1CF8695710506
:10329000610508940895E894BB2766277727CB013A
:1032A00097F908950E949419A59F900DB49F900DD1
:1032B000A49F800D911D112408952F923F924F924B
:1032C0005F926F927F928F929F92AF92BF92CF92B6
:1032D000DF92EF92FF920F931F93CF93DF93CDB7BF
:1032E000DEB7CA1BDB0B0FB6F894DEBF0FBECDBF37
:1032F00009942A88398848885F846E847D848C8408
:103300009B84AA84B984C884DF80EE80FD800C8110
:103310001B81AA81B981CE0FD11D0FB6F894DEBFF3
:103320000FBECDBFED010895A29FB001B39FC001B4
:10333000A39F700D811D1124911DB29F700D811DE1
:103340001124911D08955058BB27AA270E94BB192C
:103350000C9418190E940A1938F00E94111920F0D3
:1033600039F49F3F19F426F40C9407190EF4E095F4
:10337000E7FB0C940119E92F0E94291958F3BA1799
:10338000620773078407950720F079F4A6F50C947B
:103390004B190EF4E0950B2EBA2FA02D0B01B9019D
:1033A00090010C01CA01A0011124FF27591B99F0BB
:1033B000593F50F4503E68F11A16F040A22F232FC7
:1033C000342F4427585FF3CF469537952795A79517
:1033D000F0405395C9F77EF41F16BA0B620B730BBE
:1033E000840BBAF09150A1F0FF0FBB1F661F771F2F
:1033F000881FC2F70EC0BA0F621F731F841F48F4E4
:10340000879577956795B795F7959E3F08F0B0CF6C
:103410009395880F08F09927EE0F97958795089553
:103420000E94241A0C9418190E94111958F00E9435
:103430000A1940F029F45F3F29F00C940119511149
:103440000C944C190C9407190E94291968F39923BC
:10345000B1F3552391F3951B550BBB27AA27621790
:103460007307840738F09F5F5F4F220F331F441F9D
:10347000AA1FA9F335D00E2E3AF0E0E832D09150D1
:103480005040E695001CCAF72BD0FE2F29D0660FBE
:10349000771F881FBB1F261737074807AB07B0E801
:1034A00009F0BB0B802DBF01FF2793585F4F3AF007
:1034B0009E3F510578F00C9401190C944C195F3F14
:1034C000E4F3983ED4F3869577956795B795F7958D
:1034D0009F5FC9F7880F911D9695879597F9089575
:1034E000E1E0660F771F881FBB1F62177307840711
:1034F000BA0720F0621B730B840BBA0BEE1F88F720
:10350000E09508950E94891A6894B1110C944C19A1
:1035100008950E94311988F09F5798F0B92F992784
:10352000B751B0F0E1F0660F771F881F991F1AF0AE
:10353000BA95C9F714C0B13091F00E944B19B1E0AF
:1035400008950C944B19672F782F8827B85F39F0AE
:10355000B93FCCF3869577956795B395D9F73EF447
:1035600090958095709561957F4F8F4F9F4F0895EF
:103570000E946D1808F48FEF08950E946D18880B53
:10358000990B0895DB018F939F930E945219BF916D
:10359000AF91A29F800D911DA39F900DB29F900DA2
:1035A00011240895A1E21A2EAA1BBB1BFD010DC018
:1035B000AA1FBB1FEE1FFF1FA217B307E407F507E3
:1035C00020F0A21BB30BE40BF50B661F771F881FBF
:1035D000991F1A9469F760957095809590959B0155
:1035E000AC01BD01CF010895052E97FB1EF4009498
:1035F0000E940B1B57FD07D00E94D21A07FC03D074
:103600004EF40C940B1B50954095309521953F4FEF
:103610004F4F5F4F089590958095709561957F4FBE
:103620008F4F9F4F0895B7FF0C9452190E94521963
:10363000821B930B0895EE0FFF1F0590F491E02D70
:1036400009940F931F93CF93DF938230910510F469
:1036500082E090E0E091BC06F091BD0630E020E011
:10366000B0E0A0E0309799F42115310509F44AC083
:10367000281B390B24303105D8F58A819B816115CF
:10368000710589F1FB0193838283FE0111C04081A2
:1036900051810281138148175907E0F048175907F3
:1036A00099F4109761F012960C93129713961C934D
:1036B0003296CF01DF91CF911F910F910895009322
:1036C000BC061093BD06F4CF2115310551F0421709
:1036D000530738F0A901DB019A01BD01DF01F801B0
:1036E000C1CFEF01F9CF9093BD068093BC06CDCF3B
:1036F000FE01E20FF31F8193919322503109398328
:103700002883D7CF2091BA063091BB06232B41F4F2
:1037100020910201309103013093BB062093BA0639
:1037200020910001309101012115310541F42DB79F
:103730003EB74091040150910501241B350BE091E7
:10374000BA06F091BB06E217F307A0F42E1B3F0B5D
:103750002817390778F0AC014E5F5F4F2417350703
:1037600048F04E0F5F1F5093BB064093BA068193FB
:1037700091939FCFF0E0E0E09CCFCF93DF93009751
:10378000E9F0FC01329713821282A091BC06B0913D
:10379000BD06ED0130E020E01097A1F420813181D9
:1037A000820F931F2091BA063091BB062817390764
:1037B00009F061C0F093BB06E093BA06DF91CF91A8
:1037C0000895EA01CE17DF07E8F54A815B819E0183
:1037D00041155105B1F7E901FB83EA8349915991FC
:1037E000C40FD51FEC17FD0761F48081918102960B
:1037F000840F951FE90199838883828193819B833C
:103800008A83F0E0E0E012968D919C9113970097E7
:10381000B9F52D913C911197CD010296820F931F1E
:103820002091BA063091BB062817390739F6309730
:1038300051F51092BD061092BC06B093BB06A09342
:10384000BA06BCCFD383C28340815181840F951FB8
:10385000C817D90761F44E5F5F4F88819981480F7F
:10386000591F518340838A819B81938382832115D1
:10387000310509F0B0CFF093BD06E093BC069ECFB2
:10388000FD01DC01C0CF13821282D7CF803209F054
:1038900091110C94FE1880528F55D8F70895FC01B1
:1038A0008191861721F08823D9F7992708953197B8
:1038B000CF010895FB01DC018D9101908019011069
:1038C000D9F3990B0895FB01DC0101900D920020C2
:1038D000E1F70895FB01DC014150504030F08D913B
:1038E0000190801919F40020B9F7881B990B0895ED
:1038F000FB01DC014150504048F001900D92002046
:10390000C9F701C01D9241505040E0F7089510E002
:10391000C0E8D0E004C0FE010E941B1B2196C13804
:08392000D107C9F7F894FFCFAD
:103928000000BE0680006B016E0171017401770111
:1039380072017A017E01820186018A018E017A0173
:10394800920196019A017A01000000006202C20108
:10395800EF01B4022002FE0112020000000060051F
:10396800C201D305D2055B05C40900000000C804E4
:10397800C201D3052A0424053A05B0040D0A006ED5
:10398800616E00696E66006F7666004949005749A6
:1039980000475000504700474E005A5A5A004747C0
:1039A8004100474C4C0047534100524D4300544F8F
:1039B80050004442540048444D0048445400416477
:1039C80061667275697420475053206C6962726130
:1039D80072792062617369632070617273696E67BE
:1039E8002074657374210024504D544B3331342CAA
:1039F800302C312C302C312C302C302C302C302CDD
:103A0800302C302C302C302C302C302C302C302CCE
:103A1800302C302C302A32380024504D544B32325E
:103A2800302C313030302A314600245047434D4441
:103A38002C33332C312A36430024504D544B363026
:103A4800352A3331000A54696D653A200030300058
:103A5800446174653A20002F3230004669783A2074
:103A680000207175616C6974793A20004C6F63614C
:103A780074696F6E3A20002C2000537065656420CD
:103A8800286B6E6F7473293A2000416E676C653A33
:103A98002000416C7469747564653A200053617440
:103AA800656C6C697465733A2000416E74656E6E5E
:0C3AB80061207374617475733A20000083
:00000001FF
